:100000000C943E000C946C000C9450000C94500026
:100010000C9450000C9450000C9450000C94500020
:100020000C9450000C9450000C9450000C94500010
:100030000C9450000C9450000C9450000C94500000
:100040000C9450000C9450000C9450000C945000F0
:100050000C9450000C9450000C9450000C945000E0
:100060000C9450000C9450000C9450000C945000D0
:100070000C9450000C9450000C94500011241FBE9E
:10008000CFEFD8E0DEBFCDBF21E0A0E0B1E001C0FE
:100090001D92A530B207E1F70E94A0000C94C000A9
:1000A0000C9400008EEF85B908958CEF85B9089502
:1000B0008DEF85B908958EEF85B98FE19EE40197A4
:1000C000F1F700C000008DEF85B98FE19EE4019744
:1000D000F1F700C0000008951F920F920FB60F9223
:1000E00011248F939F938FE59AEE0197F1F700C04B
:1000F000000080910001909101010196909301010F
:10010000809300018091000190910101059724F0F6
:100110001092010110920001E09A9F918F910F902F
:100120000FBE0F901F901895F8941AB88FEF84B9EE
:10013000E89AE9E6F0E08081816080837894089510
:100140000E9494001CEFDEEFCDEF809100019091B2
:1001500001018230910571F03CF4009769F001973C
:10016000A1F70E945B00F1CF8430910539F024F0B3
:10017000059759F7C5B9E9CFD5B9E7CF15B9E5CF97
:04018000F894FFCF21
:00000001FF
